S00F0000647269766572732E7372656316
S11300000C942A000C94AA010C943C000C943C001F
S11300100C943C000C943C000C943C000C943C006C
S11300200C943C000C943C000C943C000C943C005C
S11300300C943C000C943C000C943C000C943C004C
S11300400C943C000C943C000C943C000C943C003C
S11300500C943C0011241FBECFE5D8E0DEBFCDBF19
S113006020E0A0E6B0E001C01D92A236B207E1F79D
S11300700E94A5010C94C9040C94000062E084E47D
S11300800E948F01882321F160E081E40E949301A2
S11300908823F1F061E081E40E9493018823C1F098
S11300A062E081E40E949301882391F060E082E49D
S11300B00E949301882361F061E082E40E9493012D
S11300C0882331F062E082E40E9493018111089553
S11300D080E00895CF93C0E019C080916100813021
S11300E0B9F061E081E40E949901882391F084E6EB
S11300F090E00E94650361E081E40E949F018823EF
S113010041F084E690E00E946503CF5FC93128F393
S113011001C080E0CF91089581E08093600060E0A9
S113012081E40E949901882351F088E893E10E94B8
S1130130650360E081E40E949F018111089580E0DD
S1130140089582E0809360000E946A00882301F091
S1130150089584E08093600062E081E40E94990144
S1130160882351F088E893E10E94650362E081E40A
S11301700E949F018111089580E00895CF93C0E00B
S11301801DC061E081E40E9499018823D1F061E0FF
S113019082E40E9499018823A1F084E690E00E9401
S11301A0650361E081E40E949F0161E082E40E94B2
S11301B09F0184E690E00E946503CF5FC93108F394
S11301C001C080E0CF91089562E081E40E9499012A
S11301D0882359F060E082E40E949901882329F081
S11301E088E893E10E946503089580E0089560E043
S11301F081E40E949901882399F062E082E40E94DC
S11302009901882369F088E893E10E94650360E01E
S113021081E40E949F0162E082E40E949F010895AC
S113022080E008950E948C00882339F18091610058
S1130230813019F410926100F5CF0E94A100882347
S1130240E1F080916100813019F410926100EACFED
S11302500E94A900882389F080916100813019F4FB
S113026010926100DFCF0E94A10080916100813073
S113027019F410926100D6CF089580E0089580911A
S113028060008430B1F40E94E4008823C9F162E084
S113029081E40E949F01882399F10E94BE0060E0DE
S11302A082E40E949F010E94F70081E08093610034
S11302B026C08150823018F562E082E40E949901E0
S11302C08823F1F060E081E40E949F018823C1F05B
S11302D00E94BE0062E082E40E949F010E94E4004A
S11302E062E081E40E949F010E94BE0060E082E41B
S11302F00E949F010E94F70081E0809361000895AD
S113030080E008958FB780688FBF83E00E94C002A9
S11303100E943E000E9412018111FCCF089540E02A
S11303200E94CE01089541E00E94CE01882301F08D
S1130330089541E00E944702882301F0089540E0B7
S11303400E944702882301F008950E94820180E000
S113035090E008951F920F920FB60F9211242F93DD
S11303603F934F935F936F937F938F939F93AF9339
S1130370BF93EF93FF930E943F01FF91EF91BF91D1
S1130380AF919F918F917F916F915F914F913F9129
S11303902F910F900FBE0F901F9018954130B9F513
S11303A08234A1F018F4813431F070C08334C9F080
S11303B0843411F16BC02AB381E090E002C0880F4D
S11303C0991F6A95E2F7822B8ABB60C027B381E04C
S11303D090E002C0880F991F6A95E2F7822B87BBD1
S11303E055C024B381E090E002C0880F991F6A953C
S11303F0E2F7822B84BB4AC021B381E090E002C0C3
S1130400880F991F6A95E2F7822B81BB3FC0411187
S11304103BC08234A9F018F4813431F037C08334FE
S1130420D9F0843429F132C02AB381E090E002C0CB
S1130430880F991F6A95E2F7809582238ABB26C0AC
S113044027B381E090E002C0880F991F6A95E2F714
S11304508095822387BB1AC024B381E090E002C058
S1130460880F991F6A95E2F78095822384BB0EC09A
S113047021B381E090E002C0880F991F6A95E2F7EA
S11304808095822381BB02C080E0089508954130A5
S1130490B9F58234A1F018F4813431F070C083349A
S11304A0C9F0843411F16BC02BB381E090E002C039
S11304B0880F991F6A95E2F7822B8BBB60C028B323
S11304C081E090E002C0880F991F6A95E2F7822BC1
S11304D088BB55C025B381E090E002C0880F991F06
S11304E06A95E2F7822B85BB4AC022B381E090E093
S11304F002C0880F991F6A95E2F7822B82BB3FC026
S113050041113BC08234A9F018F4813431F037C072
S11305108334D9F0843429F132C02BB381E090E0E4
S113052002C0880F991F6A95E2F7809582238BBBDE
S113053026C028B381E090E002C0880F991F6A9515
S1130540E2F78095822388BB1AC025B381E090E04E
S113055002C0880F991F6A95E2F78095822385BBB4
S11305600EC022B381E090E002C0880F991F6A9503
S1130570E2F78095822382BB02C080E0089508954B
S1130580813069F028F0823089F08330B1F01CC0EA
S113059085B78E7F85BF85B78D7F85BF17C085B72B
S11305A0816085BF85B78D7F85BF10C085B78E7F7D
S11305B085BF85B7826085BF09C085B7816085BF67
S11305C085B7826085BF02C080E008958BB78064E0
S11305D08BBF0895813069F028F0823089F0833030
S11305E0B1F01CC083B78F7B83BF83B7877F83BF82
S11305F017C083B78F7B83BF83B7886083BF10C066
S113060083B7806483BF83B7886083BF09C083B71F
S1130610806483BF83B7877F83BF02C080E008956F
S113062008958830910531F128F4009779F0019705
S1130630B9F048C0811521E0920781F1811524E0C9
S11306409207B1F180349105E9F51EC083B78E7F1E
S113065083BF83B78D7F83BF83B78B7F83BF34C052
S113066083B7816083BF83B78D7F83BF83B78B7F5D
S113067083BF2AC083B78E7F83BF83B7826083BF63
S113068083B78B7F83BF20C083B7816083BF83B769
S1130690826083BF83B78B7F83BF16C083B78E7F8F
S11306A083BF83B78D7F83BF83B7846083BF0CC050
S11306B083B7816083BF83B78D7F83BF83B7846033
S11306C083BF02C080E008950895CF93DF93EC01C7
S11306D080E00E94EA02BE0180E090E00E94CE0326
S11306E020E030E040E85BE30E94340420E030E0A6
S11306F04AE754E40E9434040E949F03EB0188E01B
S113070090E00E94110320E030E00FC083B78770AF
S113071021F40EC083B7877019F008B600FEFACF33
S113072088B7816088BF2F5F3F4F2C173D0770F358
S113073080E090E00E941103DF91CF9108950E9420
S1130740130488F09F5798F0B92F9927B751B0F048
S1130750E1F0660F771F881F991F1AF0BA95C9F741
S113076014C0B13091F00E942D04B1E008950C94AE
S11307702D04672F782F8827B85F39F0B93FCCF361
S1130780869577956795B395D9F73EF490958095BE
S1130790709561957F4F8F4F9F4F0895E89409C0DE
S11307A097FB3EF490958095709561957F4F8F4FA0
S11307B09F4F9923A9F0F92F96E9BB279395F695B6
S11307C0879577956795B795F111F8CFFAF4BB0F34
S11307D011F460FF1BC06F5F7F4F8F4F9F4F16C098
S11307E0882311F096E911C0772321F09EE8872F22
S11307F0762F05C0662371F096E8862F70E060E0DE
S11308002AF09A95660F771F881FDAF7880F969556
S1130810879597F9089557FD9058440F551F59F03F
S11308205F3F71F04795880F97FB991F61F09F3FD9
S113083079F087950895121613061406551FF2CF02
S11308404695F1DF08C0161617061806991FF1CF52
S113085086957105610508940895E894BB27662779
S11308607727CB0197F908950E9447040C94B804A4
S11308700E94AA0438F00E94B10420F0952311F0DC
S11308800C94A1040C94A70411240C942E040E942B
S11308900B0470F3959FC1F3950F50E0551F629FB1
S11308A0F001729FBB27F00DB11D639FAA27F00DC5
S11308B0B11DAA1F649F6627B00DA11D661F829FEC
S11308C02227B00DA11D621F739FB00DA11D621FD1
S11308D0839FA00D611D221F749F3327A00D611DEE
S11308E0231F849F600D211D822F762F6A2F1124D0
S11308F09F5750409AF0F1F088234AF0EE0FFF1F03
S1130900BB1F661F771F881F91505040A9F79E3F59
S1130910510580F00C94A1040C942E045F3FE4F381
S1130920983ED4F3869577956795B795F795E795AF
S11309309F5FC1F7FE2B880F911D9695879597F9B8
S1130940089597F99F6780E870E060E008959FEF4D
S113095080EC089500240A94161617061806090652
S1130960089500240A941216130614060506089521
S1130970092E0394000C11F4882352F0BB0F40F4A9
S1130980BF2B11F460FF04C06F5F7F4F8F4F9F4FE9
S10909900895F894FFCF66
S9030000FC
